:100000000C942A000C9434000C9434000C943400AA
:100010000C9434000C9434000C9434000C94340090
:100020000C9434000C9434000C9434000C94340080
:100030000C9434000C9434000C9434000C94340070
:100040000C9434000C9434000C9434000C94340060
:100050000C94340011241FBECFE5D8E0DEBFCDBF25
:100060000E9409010C945A010C94000090989198F8
:10007000E9EFF0E03197F1F700C00000929AE9EF64
:10008000F0E03197F1F700C0000092B39F7092BB8F
:1000900092B3282F207F922B92BBE9EFF0E03197AB
:1000A000F1F700C000009298E9EFF0E03197F1F726
:1000B00000C00000929AE9EFF0E03197F1F700C03C
:1000C000000092B39F7092BB22B3F0E18F9FC001FA
:1000D0001124822B82BB89EF90E00197F1F700C0D9
:1000E00000009298E9EFF0E03197F1F700C00000CE
:1000F000089581B3876081BB81B3806F81BB83E347
:100100000E94360082E30E94360088E20E94360098
:1001100082E00E94360081E00E9436008EE00E945C
:1001200036000895909A9198929AE9EFF0E031970D
:10013000F1F700C0000092B39F7092BB92B3282FDA
:10014000207F922B92BBE9EFF0E03197F1F700C0EE
:1001500000009298E9EFF0E03197F1F700C000005D
:10016000929A92B39F7092BB22B3F0E18F9FC0012D
:100170001124822B82BB89EF90E00197F1F700C038
:100180000000E9EFF0E03197F1F700C0000092982D
:1001900089EF90E00197F1F700C000000895CF9338
:1001A000DF93EC018881882331F021960E94920030
:1001B00089918111FBCFDF91CF910895CF93DF9388
:1001C000CDB7DEB760970FB6F894DEBF0FBECDBFD8
:1001D000DC01CB014AE0BE016F5F7F4F0E94250129
:1001E000CE0101960E94CF0060960FB6F894DEBF54
:1001F0000FBECDBFDF91CF910895882329F08130C4
:1002000011F4606401C060E0862F80680E943600AF
:10021000089587E893E10197F1F700C000000E947C
:10022000790060E081E00E94FD006CE970E080E010
:1002300090E00E94DE009FE32DE083E0915020409B
:100240008040E1F700C00000F0CFBB274A3031F416
:10025000992322F4BDE2909581959F4F0C94310132
:10026000BB27FB015527AA27880F991FAA1FA41790
:1002700010F0A41B83955051B9F7A05DAA3308F084
:10028000A95DA193009779F7B111B1931192CB01B8
:100290000C944A01DC01FC01672F71917723E1F78F
:1002A000329704C07C916D9370836291AE17BF0743
:0802B000C8F30895F894FFCF94
:00000001FF
