:100000000C942A000C9434000C9434000C943400AA
:100010000C9434000C9434000C9434000C94340090
:100020000C9434000C9434000C9434000C94340080
:100030000C9434000C9434000C9434000C94340070
:100040000C9434000C9434000C9434000C94340060
:100050000C94340011241FBECFE5D8E0DEBFCDBF25
:100060000E9436000C946B000C94000020E040E0ED
:1000700069E370E08AE390E00E944C0091E08BB36A
:1000800089278BBB2FE936E881E021503040804042
:10009000E1F700C00000F3CFCF93DF93EC01DB0169
:1000A0009881E1E0F0E0022E02C0EE0FFF1F0A94FB
:1000B000E2F79E2B98838C91E095E823EC938C914A
:1000C00050E002C0440F551F2A95E2F7482B4C938D
:0A00D000DF91CF910895F894FFCF5F
:00000001FF
